:020000040800F2
:10000000B0070020450100081F570008893D00087F
:100010001D5700085D160008095B0008000000007D
:10002000000000000000000000000000235700084E
:100030005F1600080000000021570008255700083F
:100040005F0100085F0100085F0100085F01000810
:100050005F0100085F0100085F0100085F01000800
:100060005F0100085F0100085F0100085F010008F0
:100070005F0100085F0100085F0100085F010008E0
:100080005F0100085F0100085F0100085F010008D0
:100090005F0100085F0100085F0100088716000883
:1000A0005F0100085F0100085F0100085F010008B0
:1000B000AD570008B9570008C55700085F01000890
:1000C0005F0100085F0100085F0100085F01000890
:1000D0005F010008F55A00085F0100085F01000891
:1000E000611600085F0100085F0100085F01000859
:1000F0005F0100085F0100085F0100085F01000860
:100100005F0100085F010008D15700085F01000887
:10011000D55800085F0100085F0100085F01000872
:100120005F0100085F0100085F0100085F0100082F
:10013000DFF80CD000F0BEF800480047495B00082B
:10014000B00700200648804706480047FEE7FEE764
:10015000FEE7FEE7FEE7FEE7FEE7FEE7FEE7FEE777
:10016000AB57000831010008202A04DB203A21FAAD
:1001700002F00021704721FA02F3D040C2F12002C0
:100180009140084319467047D2B201E000F8012BB4
:10019000491EFBD270470022F6E710B513460A4607
:1001A00004461946FFF7F0FF204610BD0EB540F299
:1001B000334102910021CDE900110A460B4600F0BF
:1001C0002AF803B000BDC1F30A5210B5C1F3130100
:1001D00040F2FF3341F480119A4201DA002010BD51
:1001E00040F233439A42A2F2334203DC5242FFF719
:1001F000BBFF10BD904010BD10B5141E73F100047C
:1002000008DA401C41F1000192185B411A4301D108
:1002100020F0010010BD2DE9F04D92469B4611B132
:10022000B1FA81F202E0B0FA80F22032904600F09A
:1002300053F804460F4640EA0A0041EA0B015346D0
:100240005A46084313D0114653EA010019D0C8F1A9
:1002500040025046FFF788FF05460E465046594675
:10026000424600F039F8084305D0012004E020465A
:100270003946BDE8F08D0020054346EAE0762C4380
:1002800037430A986305E40AA0EB08000022FD0A40
:1002900044EA47540A3002D500200146E9E7010547
:1002A00010196941DDE9084500196941BDE8F04DC3
:1002B000A2E70000064C074D06E0E06840F00103AD
:1002C00094E8070098471034AC42F6D3FFF734FFA8
:1002D000105C0308305C0308202A04DB203A00FA93
:1002E00002F1002070479140C2F1200320FA03F38D
:1002F000194390407047000070B50446006881685B
:10030000C943C90717D1816821F00101816002F05A
:100310004FFC05460AE000BF02F04AFC401B0228E1
:1003200004D920688068C043C00706D02068806870
:10033000C043C007F0D0002070BDA06A40F010009C
:10034000A062E06A40F00100E062012070BD0000A0
:10035000F8B500260446009600688168C943C907BD
:100360002DD0816841F0010181601648164900686E
:10037000B0FBF1F000E0401E00900028FBD102F03D
:1003800017FC054616E000BF02F012FC401B0228D5
:1003900010D920688068C043C0070BD0A06A40F025
:1003A0001000A062E06A40F00100E06284F824607E
:1003B0000120F8BD20688068C043C007E4D1002058
:1003C000F8BD00002C00002040420F00064910B587
:1003D00000200870054803F027F905480121016055
:1003E0000221016010BD000014000020EC0000207C
:1003F000140C0140044801210170044801600221ED
:100400000160034803F0DAB814000020100C01402A
:10041000EC00002001480078704700001400002024
:1004200010B5054803F000F904484FF480710160ED
:100430004115016010BD000034010020140C014082
:1004400004484FF48071016041150160024803F0D7
:10045000B5B80000100C0140340100200649CA7FE5
:10046000022A07D091F82010022903D02221484304
:1004700000F004B83321FAE76803002003460022A5
:100480001146014802F0FEB8840000200021014816
:1004900002F005B98400002010B50020FFF7DEFF50
:1004A000BDE810400021014802F027B98400002077
:1004B00000EB0010400000F001B8000010B5FFF79D
:1004C00075FEFFF780FE03460022BDE810401021B4
:1004D000014802F0D7B80000840000201021014834
:1004E00002F0DDB8840000201021014802F005B9B7
:1004F0008400002070B5254C254D94F82800401E3E
:1005000084F8280022D294F8290030B1401E84F8E3
:1005100029003B2084F8280018E020780B2807D118
:1005200094F82B001E2800D030B994F82A0018B98E
:1005300000F050FD01F016F8FFF748FF002000F032
:100540007DF80020E872687200F014FCE87A012857
:100550001BD194F8230002280CD0207814F8283FEF
:10056000052862784FF0BC010DD03820BDE87040FE
:1005700001F09AB814F8283FBC216278BDE87040B9
:10058000382001F0AFB88C20F0E770BD6803002080
:100590005803002070B5417A012501290DD01B4C6C
:1005A00002291ED0032927D1807A3C2824D284F83E
:1005B0002100BDE87040FFF751BF817A144801293E
:1005C00004D0C571BDE87040FFF700BFC1790029B4
:1005D00012D00021C171FFF759FFBDE87040FFF74D
:1005E00009BF807A012808D002280AD0032803D145
:1005F00000F034F80320E07770BD00F047F8E577AD
:1006000070BD00F043F80220F5E700006803002009
:1006100030000020084810B590F82810002909D1B2
:10062000007FC0EB0010800000F008F8BDE810402B
:1006300000F0D6BC10BD0000680300203C21B0FBD8
:10064000F1F3054A82F82930B0FBF1F301FB130006
:1006500082F82800704700006803002010B5094C9C
:10066000AA206080632004F0B1FF2078002808D120
:100670000548007FC0EB00108000FFF7DFFF00207F
:10068000E07210BD580300206803002010B50A4C2A
:100690004FF491706080632004F098FF2078002868
:1006A00008D10648007FC0EB00108000FFF7C6FFAE
:1006B0000020E07210BD00005803002068030020F5
:1006C00070B5254C254D94F82A00401E84F82A0068
:1006D00022D294F82B0030B1401E84F82B003B202E
:1006E00084F82A0018E020780B2807D194F8290014
:1006F0001E2800D030B994F8280018B900F06AFC20
:1007000000F030FFFFF762FE002000F03DF800200F
:100710002873A87200F04AFB287B01281BD194F8AB
:10072000230004280CD0207814F82A3F0928627886
:100730004FF0BC010DD0D820BDE8704000F0B4BF30
:1007400014F82A3FBC216278BDE87040D82000F040
:10075000C9BF8C20F0E770BD68030020580300205B
:10076000084810B590F82A10002909D1007FC0EB85
:100770000010800000F008F8BDE8104000F030BC28
:1007800010BD0000680300203C21B0FBF1F3054AD6
:1007900082F82B30B0FBF1F301FB130082F82A0042
:1007A000704700006803002010B5094CAA20608043
:1007B000632004F00BFF2078002808D10548007F53
:1007C000C0EB00108000FFF7DFFF0020207310BD9A
:1007D000580300206803002010B50A4C4FF49170B4
:1007E0006080632004F0F2FE2078002808D10648DB
:1007F000007FC0EB00108000FFF7C6FF00202073D1
:1008000010BD0000580300206803002070B5174E8B
:10081000174D184CF07A012810D1607940B10020B2
:10082000607195F8211029B120B1FFF7E3FD03E0D5
:100830000120F5E7FFF7CAFDFFF75CFE307B0128DA
:1008400012D1A07940B10020A07195F8221029B1F1
:1008500020B1FFF7CFFD03E00120F5E7FFF7B6FD7C
:10086000BDE87040FFF72CBF70BD000058030020AA
:1008700068030020300000202DE9F0412E4F0025B4
:100880002E4C7D72BD7220782D4E022825D007286F
:1008900023D00121032823D0042835D0052840D0B7
:1008A000092842D00B2844D184F8255084F82750D9
:1008B00084F82310213400F08DFB2570FFF786FDAE
:1008C000FFF7EAFD6570FFF7ABFDFFF70DFEFD7268
:1008D0003D73BDE8F04100F0C7BF7570B570F8E733
:1008E0003570F5703571E17700220121154802F06D
:1008F0005AF9707828B1B07818B1FFF767FD00F0A9
:1009000031FEFFF7C9FDE4E7E07E012807D00228A9
:100910000FD194F82010BDE8F04101F021BAE17F39
:10092000F9E7BDE8F04100F025BABDE8F04100F07C
:100930003DBABDE8F08100005803002068030020A4
:100940003B0000200018014010B5424C20780128DF
:1009500020D002282AD007282FD004283AD00528F2
:1009600045D0092847D00B2872D194F825000128DA
:1009700045D094F82700012855D094F82300411E53
:10098000032965D2401CC0B284F82300BDE81040A2
:1009900001F08EB8E07E012801D10220E076A27E2F
:1009A000617EBDE81040C0B201F06CB9E07F411E2D
:1009B00003290AD2401CE07707E094F82000411E8A
:1009C000032902D2401C84F82000BDE81040C0B2C8
:1009D00000F0E4BF207F411F192939D2401DC0B269
:1009E00020770022BDE81040114601F05ABABDE858
:1009F000104000F0EDB9BDE8104000F011BA94F8D5
:100A000021003C2824D2401CC0B284F821000128D7
:100A100003D1FFF73BFDFFF7EDFC14F8210FFFF7C3
:100A20001DFDA078B2E794F822003C2810D2401CAB
:100A3000C0B284F82200012803D1FFF74FFDFFF771
:100A4000FFFC14F8220FFFF733FD60789EE7FFE705
:100A500010BD00006803002070B50F2001F0A0FA5F
:100A600000F0D8FE7C4C207801281BD0022826D02C
:100A7000072830D000210122032836D0042854D082
:100A8000764D05285ED009287CD00B2879D194F8C2
:100A9000230001286BD002286AD0032869D00428DB
:100AA00068D0D3E0E07E012807D0022869D194F80D
:100AB0002010BDE8704001F053B9E17FF9E7E07F15
:100AC00004285ED203280AD1FFF7E0FCBDE870409D
:100AD000002001F071B994F82000042851D2217F40
:100AE000E07EBDE8704001F08BB9E07F032848D17B
:100AF0005B484378002B44D08378002B41D00379A6
:100B000043B1002303713BB10270FFF773FC00F0A7
:100B1000EDFC06E00123F5E70170FFF757FC00F05C
:100B2000F9FCBDE8704000F04FBAE07E012805D026
:100B3000022826D1BDE8704000F0B4B9BDE870408D
:100B400000F096B994F8210000281AD0687A50B1C4
:100B50000020687278B1FFF75DFDFFF74BFC00F0F5
:100B6000EDFC01200CE00120F3E70BE009E023E0BD
:100B700031E046E055E0FFF729FC00F0CBFC002017
:100B8000E87270BD94F822000028FAD0A87A50B11B
:100B90000020A87248B1FFF7E3FDFFF72BFC00F03F
:100BA000CDFC012006E00120F3E7FFF70FFC00F089
:100BB000B1FC0020287370BD94F8240030B10020EF
:100BC00084F8240020B184F825203FE00120F7E7D5
:100BD00084F825103AE0687A50B10020687248B174
:100BE000FFF718FDFFF706FC00F0A8FC012006E067
:100BF0000120F3E7FFF7EAFB00F08CFC0020E8722D
:100C000024E094F8260038B15FF0000084F8260054
:100C100020B184F8272019E00120F7E784F8271095
:100C200014E0A87A50B10020A87248B1FFF798FDEF
:100C3000FFF706FC00F082FC012006E00120F3E74C
:100C4000FFF7EEFB00F066FC0020287394F8230009
:100C5000BDE8704000F02CBF68030020580300205E
:100C60003B00002010B5424C2078012820D00228FB
:100C70002BD0072830D004283BD0052846D009289F
:100C800048D00B2872D194F82500012846D094F85A
:100C90002700012856D094F82300811E022965D828
:100CA000401EC0B284F82300BDE8104000F000BF31
:100CB000E07E811E022901D2401EE076A27E617E86
:100CC000BDE81040C0B200F0DDBFE07F811E032907
:100CD0000AD2401EE07707E094F82000811E032925
:100CE00002D2401E84F82000BDE81040C0B200F0DF
:100CF00055BE207F811F182938D8401FC0B22077E9
:100D00000022BDE81040114601F0CBB8BDE810400C
:100D100000F0E8B8BDE8104000F00CB994F82100EC
:100D2000401E3B2822D8C0B284F82100FFF796FB72
:100D300094F8210018B9FFF7AFFBFFF747FB94F8D1
:100D40002300B1E794F82200401E3B280ED8C0B221
:100D500084F82200FFF7ACFB94F822000028EED1C3
:100D6000FFF7C2FBFFF75CFBE9E7FFE710BD000000
:100D70006803002010B50B480024012180F82140B1
:100D8000C17705210177FFF721FBFFF785FB00F015
:100D900021F900F0E7FB0448C472BDE8104000F000
:100DA00063BD0000680300205803002010B506480A
:100DB0000024012180F8224080F82010FFF7DAFF9C
:100DC0000248047310BD000068030020580300208F
:100DD00010B5114C94F821003C281BD2401CC0B225
:100DE00084F82100E17F012901D10C4948700128D4
:100DF00005D1FFF74BFBFFF7FDFA00F0F1F814F80F
:100E0000210FFFF72BFB20780022BDE81040114690
:100E100001F03EB810BD0000680300203B00002038
:100E200010B5114C94F822003C281CD2401CC0B2D2
:100E300084F8220094F82010012901D10B49887010
:100E4000012805D1FFF722FBFFF7D4FA00F0C8F81C
:100E500014F8220FFFF702FB20780022BDE81040B3
:100E6000114601F015B810BD680300203B000020BA
:100E700010B50A4CE07F012801D0022801D1FFF70C
:100E800005FC00220121064801F08DFEE07E00F005
:100E9000F7FDBDE8104000F029BB0000680300200A
:100EA0000018014010B50D4C94F82000012804D022
:100EB000022802D0032803D004E0FFF78DFC01E0F4
:100EC000FFF772FC01221146054801F06CFEE07E3E
:100ED00000F0D6FDBDE8104000F008BB680300201C
:100EE0000018014010B5114C94F82100401E3B2819
:100EF0001AD8C0B284F82100E17F012901D10C4940
:100F00004870FFF7ABFA94F8210028B9FFF7C4FA4C
:100F1000FFF75CFA00F05EF894F821000022BDE8CB
:100F20001040114600F0B4BF10BD0000680300205F
:100F30003B00002010B5114C94F82200401E3B28C5
:100F40001BD8C0B284F8220094F82010012901D1E6
:100F50000B498870FFF782FA94F8220028B9FFF74E
:100F60009BFAFFF733FA00F035F894F822000022DC
:100F7000BDE81040114600F08BBF10BD6803002093
:100F80003B00002010B50446007A0A4B01280ED021
:100F900002280ED101220121184601F004FE20464C
:100FA000FFF7F8FA2046BDE8104000F0EFBA002243
:100FB000F1E710BD00180140024800214172817222
:100FC00070470000580300200148007900F0E2BE9D
:100FD0003B000020014802F027BB00007C010020FC
:100FE000014802F0EBBA00007C0100202DE9F0413D
:100FF0001248134942884888824213D9401C114F35
:1010000080B2012502263C1F488001280DD002280D
:101010000FD0042804D10020FFF720FA25602660B5
:10102000BDE8F08100204880FAE700F04DF93D600E
:10103000F5E700F063F925603E60F1E75803002012
:1010400014000020140C01402DE9F041154882885D
:10105000154881888A4217D9491C89B28180134872
:10106000134F4FF480756E003C1F90F82200012949
:101070000DD002290FD0042904D10020FFF718FA5F
:1010800025602660BDE8F08100218180FAE7FFF746
:101090000FFA3D60F5E74008FFF70AFA25603E6069
:1010A000F0E700005803002014000020680300202F
:1010B000140C014070B50C4D00202978002911D086
:1010C0000A4C218801E0401CC0B28842FBD300F0EA
:1010D00011F8002020802870BDE87040C821044825
:1010E000FFF759B870BD00001A0000201C00002056
:1010F000C401002070B51B4C2078A678552830D14B
:101100006078DB282DD1184D2878801EC1B220468A
:1011100000F012F92A88C0F307212244C0B212F865
:10112000023C8B421DD112F8011C814219D1022EC2
:1011300005D0FE2E15D1207A012805D00BE0BDE8A0
:1011400070400848FFF71EBF084901200870FFF7EC
:1011500033FF00F0E5FA217A6079BDE8704000F0D5
:1011600043B870BDC40100201C00002058030020BB
:1011700070B51C4C01228021204601F014FDC820CE
:1011800001F084FB012215022946204601F00BFDE7
:10119000C82001F07BFB012256023146204601F0B7
:1011A00002FDC82001F072FB00F05EFBC82001F0D8
:1011B0006DFB00228021204601F0F5FC002229462B
:1011C000204601F0F0FC00223146204601F0EBFC05
:1011D000C82001F05BFB2046BDE870400122802161
:1011E00001F0E1BC0010014030B589B00C46054665
:1011F00020216846FEF7CFFF55218DF80010DA2137
:101200008DF80110022000228DF8020009208DF8CF
:1012100004008DF805508DF8062016498DF803203E
:101220008DF807208DF8084068468B5C8418521CA6
:10123000D2B26372062AF8D30E48C01F01788DF827
:101240000F1040788DF8100000F0B4FE8DF81100FA
:101250001221684600F070F8010A8DF812108DF81E
:1012600013000A2314226946034802F00BFD09B05B
:1012700030BD000040000020D002002070B51049B1
:101280000878002814D0A1F10B0400252079052846
:101290000DD2401CC2B20B482271022A09D0042A86
:1012A00006D10122CA700022012101F07CFC2571C7
:1012B00070BDCD70BDE870400122114601F073BCD5
:1012C0003B000020001801400A490A782AB1CA7878
:1012D0000AB1497807E0897805E00749CA7E012A02
:1012E00005D091F82210B1FBF0F0FFF7B7B891F8F4
:1012F0002110F8E73B000020680300200B490A7822
:101300002AB1CA780AB1497807E0897805E0084926
:10131000CA7E012A06D091F822104908B1FBF0F0EC
:10132000FFF79CB891F82110F7E700003B00002080
:1013300068030020FFF76ABA30B503464FF6FF7026
:101340004AF201040EE000BF13F8012B50400022C6
:10135000C50702D084EA500000E04008521CD2B217
:10136000082AF5D3491EC9B2EED230BD10B50F2000
:1013700000F016FE00F04EFA00F0F8FD002806D14D
:101380000022BDE810400421014801F00CBC10BD52
:10139000000C014010B5FFF7E9FF4FF4FA74204646
:1013A00001F074FAFFF7E2FF204601F06FFABDE8A2
:1013B0001040FFF7DBBF000070B580211C4801F032
:1013C000EDFB002816D11B49087A401CC0B20872F8
:1013D00001280FD9184D194C287860B10122042139
:1013E000204601F0E0FB01220821204601F0DBFB52
:1013F0000020287070BD00220821204601F0D3FB98
:101400000F4D00228021284601F0CDFB0022A915B6
:10141000284601F0C8FB00226915284601F0C3FBED
:101420002046BDE870400022042101F0BCBB000052
:10143000001801405803002030000020000C01403B
:101440000010014010B503F0B1FF03F061FF03F09D
:1014500087FF04F023F904F03DF904F06BF804F081
:101460007FF804F0E7F802F079FD0C4C01202060D1
:101470000220206000220121094801F094FBA01500
:101480002060400020600F2000F08AFD00F00AF884
:10149000FFF76EFEBDE81040FFF77CBF140C014063
:1014A000001801400E4900200E4A48778877507294
:1014B000907201F8190F012248708A708A71CA71FE
:1014C00008728A72C8720873487388730523CB70D8
:1014D00005490870CA70087148708870704700002C
:1014E00068030020580300203B0000201CB506A123
:1014F0000A23D1E90001CDE9000107226946044829
:1015000002F0C0FB1CBD00007E05A00001A6EF009C
:101510008C0200201CB506A10A23D1E90001CDE907
:10152000000107226946044802F0ACFB1CBD000024
:101530007E05A00002A7EF008C0200201CB506A1CA
:101540000A23D1E90001CDE90001072269460448D8
:1015500002F098FB1CBD00007E05A00003A8EF0070
:101560008C0200201CB506A10A23D1E90001CDE9B7
:10157000000107226946044802F084FB1CBD0000FC
:101580007E05A00004A9EF008C02002010B586B0F3
:10159000044614216846FEF7FEFD55218DF8001023
:1015A000DA218DF8011002208DF8020000210120BF
:1015B0008DF803108DF8040060798DF805008DF822
:1015C00006108DF807108DF8081009216846FFF7FE
:1015D000B3FE010A8DF809108DF80A000A230B22C8
:1015E0006946024802F04EFB06B010BDD002002052
:1015F00070B5174CA07830B10020A070002520B144
:1016000002F0C4FB0AE00120F7E7E0781E2802D2CE
:10161000401CE07002E0FFF7A9FEE570FFF7CCFE8A
:10162000FFF72CFE0B480178002910D041780529DE
:101630000DD36178FF2902D2491C617000E065700A
:1016400045706078BDE870400121FFF7CDBD70BDE9
:101650003000002058030020FFF72CBDFEE7704744
:1016600010B54FF4805001F075F94FF4005001F0BF
:1016700071F94FF4804001F06DF9BDE810404FF46E
:10168000004001F067B9802001F064B972B6FEE74E
:1016900008B5F02000904FF4A0730E2200214FF601
:1016A000FF7002F0C1FB08BDF8B51F4610250E46BD
:1016B00004460223009503F03FFD0020009008A39C
:1016C0001022314604F1140003F0CAFD02233A4609
:1016D000314604F11E00009503F02EFDF8BD000018
:1016E0003A000000F8B51F4610250E4604460223B6
:1016F000009503F06BFD0020009008A310223146F6
:1017000004F1140003F0ACFD02233A46314604F123
:101710001E00009503F05AFDF8BD00003A000000DD
:1017200008B54FF6FF7002F037FB04480090202305
:10173000A52268214D2000F047FC08BD7CE0000890
:1017400008B50BB30A2A1ED2DFE802F00507090B21
:101750000D0F111315171B4A10E01B4A0EE01B4A10
:101760000CE01B4A0AE01B4A08E01B4A06E01B4A41
:1017700004E01B4A02E01B4A00E01B4A00921D23C2
:10178000132200F021FC08BD0A2AFCD2DFE802F097
:101790000507090B0D0F11131517144AEEE7144A2C
:1017A000ECE7144AEAE7144AE8E7144AE6E7144A81
:1017B000E4E7144AE2E7144AE0E7144ADEE7144A91
:1017C000DCE70000642D0308BA3103081036030873
:1017D000663A0308BC3E030812430308684703083F
:1017E000BE4B0308145003086A5403080802030898
:1017F0005E060308B40A03080A0F0308601303080F
:10180000B61703080C1C030862200308B824030859
:101810000E29030800F09EB838B50F2000F0C0FB79
:1018200000F098F800241A235A2219463C2000940C
:1018300000F0F0FB0B4800901723612210216E206E
:1018400000F0C2FB1A23FE221946E020009400F0AB
:10185000E1FBA022C8233E211046009400F0DAFBF1
:1018600038BD0000C409010810B5074C01202070E4
:10187000FFF70EFFFFF7D0FFA27E617EE07EBDE89E
:10188000104000F0FFB90000680300202DE9F84F78
:1018900004460A200D46B2FBF0F1B2FBF0F700FB64
:1018A00011289A4605F12200DDF8289004F11E0364
:1018B000A4F10A064FF6FF7B2A46009057B3214653
:1018C000584602F0B1FAE9B2F0B253463A46FFF791
:1018D00037FF04F10C00E9B2C0B253464246FFF7AD
:1018E0002FFFA4F1320005F10806B9F1000F18D05E
:1018F000114900910D231022314600F065FB0F487D
:1019000000900D231022314604F1320000F05CFB00
:10191000BDE8F88F3146584602F086FAE9B2E0B2E7
:10192000DBE718350146A4F10C0332465846009512
:1019300002F07AFAECE70000C0580308685A03087E
:1019400010B5144603F0EEF92046BDE8104002F051
:10195000E1BA000010B500F0F3FA4FF493740328D5
:101960000ED000F0EDFA02280CD000F0E9FA0128C0
:101970000AD0064A2046BDE81040052100F096BB7B
:10198000034AF7E7034AF5E7034AF3E7FC71000867
:10199000546E00088C6F0008C470000838B52D4DD7
:1019A000044601280AD02C48009020233E225021D2
:1019B0002E2000F009FB022C13D007E027480090EE
:1019C00020233F2250212E2000F0FEFA24480090D0
:1019D00020233E225021D42000F0F6FA032C16D00A
:1019E00007E02048009020233F225021D42000F01F
:1019F000EBFA2878022823D01B4820233E220090AF
:101A000098212E2000F0E0FA042C1ED00AE028785D
:101A1000022810D0154820233F22009098212E2024
:101A200000F0D2FA12481F235C2200909821D420A3
:101A300000F0CAFA38BD0F48212341220090EDE79B
:101A40000D48212341220090DAE70C4820235B2235
:101A50000090EBE7680300208A5B0108126B010825
:101A6000DA7A0108628A01082A9A0108B2A90108F3
:101A70000EDB010844CA01087AB901085EF10108C9
:101A800010B50446FFF704FE0848012C07D0022CCD
:101A90000BD109210170BDE8104000F0B1B805215B
:101AA0000170BDE8104000F069B810BD6803002067
:101AB00010B5314C012894F8213020D002282CD0C8
:101AC00003283CD0042855D100221146184600F0C6
:101AD000F1F994F8283094F82920BC2138202234D8
:101AE000FFF7E2FD00222078114600F0ECF9237A9E
:101AF000627ABC21BDE81040D820FFF7F3BD94F80E
:101B0000252001211846223400F0D4F9A379E27986
:101B1000BC213820FFF7C8FD0DE000221146184611
:101B200000F0C8F994F8283094F82920BC21382016
:101B30002234FFF7D7FD00222078114610E0002262
:101B40001146184600F0B6F994F8283094F8292088
:101B5000BC2138202234FFF7A7FD627920780121CB
:101B600000F0B1F9237A627ABC21BDE81040D82098
:101B7000FFF79ABD10BD00006803002038B50024AF
:101B80001A23782219463C20009400F043FA1848A2
:101B90000090162314221021942000F015FA1A2325
:101BA0004FF482721946C820009400F033FA1148AD
:101BB00000901423292236218C2000F005FA0E4CC7
:101BC0000022114614F8210F00F062F90B48009032
:101BD0003C2375229E21682000F0F6F9E379227AF1
:101BE00001B0BC21BDE830408C20FFF75DBD000096
:101BF0009C5602088C5D02086803002028CB02086E
:101C000038B500241A23782219463C20009400F0AD
:101C100001FA18480090162314221021942000F095
:101C2000D3F91A234FF482721946C820009400F0A9
:101C3000F1F9114800901423292236218C2000F05C
:101C4000C3F90E4C0022114614F8210F00F020F9C0
:101C50000B4800903C2375229E21682000F0B4F9C7
:101C6000637AA27A01B0BC21BDE830408C20FFF736
:101C70001BBD0000145A02088C5D02086803002096
:101C800028CB020838B5044601280AD00E48009037
:101C90002E23252264213C2000F096F9022C11D03D
:101CA00007E00A4800902E23252264213C2000F002
:101CB0008BF9074800902E2325226421DF2000F0B5
:101CC00083F938BD0348F5E73A1B01088E2801085F
:101CD000E23501083643010838B5054600241A23C9
:101CE000782219463C20009400F094F9012D02D08E
:101CF000022D02D009E0184800E0184800901C238B
:101D000019221021942000F05FF91A234FF48272F7
:101D10001946C820009400F07DF982237E221946DE
:101D20002420009400F076F982234FF48E72194635
:101D3000C220009400F06EF9A022782344211046BE
:101D4000009400F067F9A022C82394211046009463
:101D500000F060F938BD00008A5001080A560108F9
:101D600070B50D460446FFF793FC0948012C02D0DC
:101D7000022C02D003E0022100E00721017020467E
:101D8000FFF7AAFF2846BDE87040FFF707BE000036
:101D90006803002008B508B1054800E00548962111
:101DA000009025232422084600F00EF908BD00000B
:101DB000961202082608020838B50446FFF768FCA8
:101DC0000B490320352308700A4800908B224421D8
:101DD000622000F0F9F80CB1074800E007489621AE
:101DE000009025232422084600F0EEF838BD0000BC
:101DF00068030020061D0208961202082608020841
:101E0000F8B50446FFF744FC1C4D0420002628705A
:101E10001A23782219463C20009600F0FBF8012C8A
:101E200002D0022C02D009E0154800E015480090CD
:101E30001C2319221021942000F0C6F81A234FF415
:101E400082721946C820009600F0E4F80E4800900F
:101E50005223A1225621502000F0B6F80120009014
:101E60000AA310228221BE2003F0FAF9287FBDE8E0
:101E7000F8400022114600F014B80000680300206A
:101E80008A5001080A560108FC6302086D696E0059
:101E900008B50B460092024664219820FFF7F6FC35
:101EA00008BD08B50B460092024676219820FFF740
:101EB000EDFC08BD08B50B460092024664214420A3
:101EC000FFF7E4FC08BD08B50B460092024664210A
:101ED000E420FFF7DBFC08BD3EB5002400900120A4
:101EE0000190072002906946084800F0FFF8074873
:101EF00000F0EAFA6421054800F048FA18B90348EE
:101F000000F072F9044620463EBD00005400002057
:101F10002DE9F04100250E4607462C4605E03846DF
:101F2000FFF7DAFF641C0544E4B2B442F7D3034878
:101F300000F02AFBB5FBF6F0BDE8F081540000206C
:101F4000094900208968B1F5166F01D9032070474F
:101F5000A1F69902C72A01D202207047A1F2F471BA
:101F6000A429FAD201207047000000200B4901206B
:101F70000B460A781B69022A05D2521C0A708A682D
:101F80001A440A61704700220A700A615B0840F235
:101F9000EE718B42F6D20020704700000000002056
:101FA00010B50221FFF7B4FF0149886010BD0000A1
:101FB00000000020034900204968012900D90120C0
:101FC00070470000000000202DE9F0411E46154634
:101FD0008B194219521E5B1E069F02F039FF002426
:101FE000754309E007EB440017F81410407841EA04
:101FF000002001F08FFF641CA542F3D804480021A3
:102000000CC8BDE8F041521E08465B1E02F020BF1E
:10201000940300202DE9F84F1C4615460E468046D5
:1020200002F080FEB5EB0805A4EB06044FF0FF308C
:1020300002D44FF0010B01E083466D42002C02DB1D
:102040004FF0010901E08146644268004FEA440A0A
:102050000090A54214DDAAEB050400270CE03146F0
:1020600040460A9AFFF76CFC002C02DB00984E44B5
:10207000241A5444D8447F1CAF42F0DDBDE8F88FE9
:102080000098051B00270DE0314640460A9AFFF7ED
:1020900057FC002D02DBA5EB0A05D84400984E44FE
:1020A00005447F1CA742EFDDE8E7000070B5154648
:1020B000CB1D00F1120202F0CBFE002405EB440020
:1020C00015F81410407841EA002001F023FF641C49
:1020D000982CF3DB044800210CC8BDE87040521E68
:1020E00008465B1E02F0B4BE94030020F8B500243D
:1020F000009490F824202546012A12D0012280F86D
:1021000024204A681F23072A0DD20668776B521EC7
:1021100002EB820293409F430B6893401F43776317
:1021200019E00220F8BD06680D2A0AD2376BD21FCB
:1021300002EB820293409F430B6893401F43376337
:1021400009E0F76A0D3A02EB820293409F430B6865
:1021500093401F43F7620A68072306680A2A0AD3D6
:10216000F7680A3A02EB420293409F438B68934020
:102170001F43F76008E0376902EB420293409F4338
:102180008B6893401F4337610A68102A01D0112AD7
:1021900020D1124B02689A4217D193681B0219D4BE
:1021A000936843F4000393600968102912D10C4925
:1021B0000C4A0968B1FBF2F101EB8101490000E032
:1021C000491E00910029FBD104E0816A41F0200101
:1021D0008162012480F824502046F8BD002401408B
:1021E0002C00002040420F000068C06C70470000C7
:1021F0002DE9F04104004FF000057FD0A06A0026D1
:1022000028B9E66284F82460204600F081F8204670
:10221000FEF772F8A16AC90600D420B1A06A40F0A6
:102220001000A0626AE0A16A21F4885141F0020125
:10223000A162334923688B42E16904D1B1F5402F93
:1022400001D14FF40021277B4FF4807C41EA470203
:1022500061680A43A168614508D0012906D00021C0
:1022600094F814E0BEF1010F02D00AE06146F7E7EE
:10227000C7B1A76A47F02007A762E76A47F00107DE
:10228000E7625F6827F469470F435F6023689968D6
:102290001C4F394011439960A16861450BD0012959
:1022A00009D00CE0DFF860E0A7690EEB47370F4379
:1022B00047F40061E5E7218A0D05A5F58015216841
:1022C000CB6A23F470032B43CB62216889680F4BE0
:1022D0001940914208D1E662A16A21F0020141F061
:1022E0000101A162BDE8F081A06A20F0020040F087
:1022F0001000A062E06A40F00100E0620120F1E716
:10230000003C0140FDF7E1FF00E0FFFFFE0E1FFF74
:1023100010B586B0002100910191029103910068EF
:102320001649884227D11648816941F400718161BC
:10233000816901F400710491816941F004018161B6
:10234000816901F004010491816941F0100181610A
:102350008069032400F0100004900F20CDE90004F0
:102360006946084800F002FB2020CDE900046946D8
:10237000054800F0FBFA06B010BD00000024014043
:102380000010024000080140001001402DE9F84310
:1023900000270D460446009700F00AFC804620689E
:1023A0008168C90508D5A06A40F02000A06284F8C1
:1023B00024700120BDE8F8834168C90503D4C06AD0
:1023C00010F4700F2AD0022000F0BCFC3B490968D1
:1023D000B1FBF0F62068036939490B424FEA61010D
:1023E0004FEAA1121FD1C3684FEA611C13EA0C0F18
:1023F00019D103690B4225D1C068104222D11420A3
:1024000023E0681C0AD02DB100F0D2FBA0EB08003D
:10241000A84203D920680068800725D52068006895
:102420008007EED52DE003690B4202D1C16811424D
:1024300006D0026923490A4206D1C068084203D186
:10244000542002E0292000E0FC204643009816E0DA
:10245000681C11D02DB100F0ABFBA0EB0800A84226
:102460000AD90098B04207D2A06A40F00400A062E6
:1024700084F8247003209DE70098401C0090B0422F
:10248000E6D321686FF012000860A06A40F4007083
:10249000A06220688068C0F3424007280CD1207BEE
:1024A00050B9A06A20F48070A062A06AC00403D46E
:1024B000A06A40F00100A06200207BE72C00002011
:1024C000244992244992240070B5044690F82400CF
:1024D00001280DD0012084F824002046FDF738FFA4
:1024E00002004FF0000005D084F82400104670BDB3
:1024F000022070BDA16A40F20123994341F480712A
:10250000A1621F4D23681F49AB4218D10E6816F413
:10251000702F14D0A66A46F48016A6620E6876055F
:1025200005D5A66A26F4005646F48056A662A66A29
:10253000F6040AD5E66A26F00606E66206E0A66A12
:1025400026F48016A6625E68E9E7E06284F824005B
:102550006FF00200186020688368C3F34243072BC2
:1025600005D1A84208D1096811F4702F04D0816800
:1025700041F480118160B9E7816841F4A001F9E775
:10258000002801400424014010B5044690F82400BE
:10259000012807D0012084F824002046FDF7ACFE76
:1025A00010B107E0022010BDA16A21F4885141F06A
:1025B0000101A162002184F8241010BD70B5437997
:1025C000012B1CD0012646710223037105682B687C
:1025D00002F0100440F6FE72A2409343D1E90021BC
:1025E0000A43A2401A432A6001680A68C023A34034
:1025F0009A430A60067100214171084670BD0220AD
:1026000070BD70B5040003D02079002510B105E03D
:10261000012070BD6571204600F008F8022020718D
:10262000256101202071002070BD000000B585B03B
:102630000021009101910291039100680E498842A6
:1026400018D10E48C16941F00051C161C16901F062
:1026500000510491816941F00401816180696946FA
:1026600000F0040004903020009003200190044802
:1026700000F07CF905B000BD00740040001002407D
:102680000008014018B5046800940068104421B1A6
:10269000143000900360002018BD0830F9E770B5D1
:1026A0004279012A1ED0012242710223037104687B
:1026B000266801F0100302FA03F52E432660002974
:1026C000016811D00C6804F470153C249C40A542AC
:1026D00003D14B6843F002034B600271002141714A
:1026E000084670BD022070BD0B68C3F383030F2B37
:1026F000F3D14B6843F00103EEE710B502681368AD
:1027000001F01004012101FA04F4A34313600171E4
:10271000002010BD10B590F821100022022905D02C
:102720000421816380F82020012010BD01680B681E
:1027300023F00E030B6001680B6823F001030B60AC
:1027400090F84030C46B012101FA03F3636080F814
:10275000211080F82020104610BD00002DE9F05F08
:1027600090F821100024022903D004218163012460
:1027700085E001680A6822F00E020A6001680A68B2
:1027800022F001020A603F4E3E4FB215DFF8F4C05E
:10279000DFF8F090DFF8ECA0DFF8E8B0DFF8E4E075
:1027A0000168783F13011502ACF1640CA9F15009DE
:1027B000AAF13C0AABF1280BAEF1140E4FF48018CD
:1027C000B14227D9B9420ED0614512D049451DD03A
:1027D000514518D0594518D0714501D1424615E0F0
:1027E000294EB14201D1012210E0274E1436B142E8
:1027F00001D110220AE0244E2836B14206D0224AE6
:102800003C32914201D11A4600E02A461E49091F76
:102810000A602BE0B94213D0614517D0494522D058
:1028200051451DD059451DD0714501D142461AE090
:10283000B14202D14FF0807215E0134EB14201D186
:10284000012210E0104E1436B14201D110220AE0EC
:102850000D4E2836B14206D00B4A3C32914201D18E
:102860001A4600E02A46074980394A60012180F86B
:102870002110002180F82010416B01B188472046CB
:10288000BDE8F09F800002400804024070B5044695
:1028900000F08EF90546601C02D00448007804441C
:1028A00000F086F9401BA042FAD370BD2000002042
:1028B00070B5254D04460026287848B1FEF7D4FFB0
:1028C0002E70FDF7A7FD18B1FDF780FDFDF7E4FDC3
:1028D0004FF400411D488C4207D100F05FF90028F9
:1028E00030D1BDE87040FDF7C7BF4FF400518C42B6
:1028F00007D100F053F9002824D1BDE87040FEF75D
:10290000ABB84FF480518C4207D100F047F9002852
:1029100018D1BDE87040FEF717B84FF480418C42E3
:1029200007D100F03BF900280CD1BDE87040FEF75C
:1029300099B9802C06D18021054800F02FF9002894
:1029400000D12E7270BD000058030020000C014021
:1029500000180140044910B50A68024202D008601C
:10296000FFF7A6FF10BD0000140401402DE9F84F49
:10297000DFF8C891002409F1040A0AF1040B234688
:102980000F270BF1040ED1E00125A54006EA050250
:10299000AA4276D1DFF8A8C14E68A6EB0C086645BE
:1029A0002BD00DDC032E34D005DC36B3012E19D02C
:1029B000022E2FD11BE0112E16D0122E2AD119E093
:1029C000B8F5881F19D006DCB8F5803F15D0B8F5EA
:1029D000801F1FD111E0B8F5001F0ED0B8F5041FFD
:1029E00018D10AE0CB6815E0CB681B1D12E0CB685C
:1029F00008330FE0CB680C330CE08B682BB1012B54
:102A00004FF0080303D0456104E0042302E00561B0
:102A100000E00023FF2A01D8064601E000F1040689
:102A20004FEA840501D9A5F12005D6F8008007FA00
:102A300005FC28EA0C0803FA05F548EA0508C6F87B
:102A400000804D68ED0070D53E4DAE6946F0010640
:102A5000AE61AD6924F0030605F0010500953A4D1D
:102A600006EB050CDCF80850A607360F07FA06F847
:102A700025EA0805DFF8D480404503D14FF000086F
:102A800025E052E0DFF8C880404502D14FF0010850
:102A90001DE0DFF8C080404502D14FF0020816E08B
:102AA000DFF8B480404502D14FF003080FE0DFF8B3
:102AB000AC80404502D14FF0040808E0DFF8A08068
:102AC000404502D14FF0050801E04FF0060808FA32
:102AD00006F848EA0508CCF808804D68D9F8006087
:102AE000ED034D4601D5164300E096432E604D6838
:102AF000DAF80060AD03554601D5164300E0964371
:102B00002E604D68DBF80060ED025D4601D516438E
:102B100000E096432E604D68DEF80060AD02754619
:102B200001D5164300E096432E60641C0A681646E1
:102B3000E2407FF429AFBDE8F88F000000040140B7
:102B40000000111000100240000001400008014088
:102B5000000C014000100140001401400018014029
:102B6000001C01400B4808B5816941F001018161F9
:102B7000806900F0010000900748416821F0E061A1
:102B800041F080714160416821F0E06141F00071E5
:102B9000416008BD0010024000000140806808400C
:102BA00000D0012070470AB1016170470904FBE7BA
:102BB00001488068704700002000002070B50400C4
:102BC00011D021684CF6CC400860216845F2555080
:102BD0000860D4E9000141602168A0688860FFF7BF
:102BE000E7FF05460DE0012070BD00BFFFF7E0FFE5
:102BF000401B272805D92068C068800701D0032022
:102C000070BD2068C0688007F0D121684AF6AA200C
:102C10000860002070BD00684AF6AA21016000200B
:102C20007047000002488168027811448160704753
:102C300020000020074810B5016841F01001016034
:102C4000032000F06DF80F2000F006F800F024F8E3
:102C5000002010BD0020024070B50D4D04464FF419
:102C60007A712878B1FBF0F00A490968B1FBF0F0FD
:102C700000F0CAFB48B9102C07D200222146501E92
:102C800000F02EF800206C6070BD012070BD0000C7
:102C9000200000202C000020094808B5816941F07F
:102CA00001018161816901F001010091C16941F077
:102CB0008051C161C06900F08050009008BD0000E3
:102CC00000100240002809DB00F01F0201219140A2
:102CD0004009800000F1E020C0F8001170470000BA
:102CE000F0B40E4B1B680C46C3F30223C3F1070577
:102CF000042D00D90425191D072901D2002300E065
:102D0000DB1E012606FA05F1491E214099409E402E
:102D1000761E16403143F0BC02F0F7BE0CED00E029
:102D2000064900F0070208684FF6FF03184040EA22
:102D30000220034A10430860704700000CED00E0D9
:102D40000000FA0510B52CA401461DCC86B08DE814
:102D50001D002DA02D4C00680490002004292FD0C8
:102D60000BDC01292FD0022928D100F073F961680A
:102D7000C1F38131491C49001EE0082920D01029E7
:102D80001CD161682268D20118D5C1F38342C903FE
:102D90001DF8020009D5616804AAC1F34041515CE5
:102DA0001B4AB2FBF1F1484301E01A49484361680C
:102DB000490203D440000321B0FBF1F006B010BD7E
:102DC00000F058F9FAE7226AC2F30121012903D180
:102DD000920701D5C803F1E7022905D1626A92077B
:102DE00002D549F64040E9E70329E7D12168890384
:102DF000E4D50948E2E700000203040506070809D4
:102E00000A0B0C0D0E0F1010010200000010024002
:102E10000024F40000093D0048E801002DE9F843D2
:102E200005460078354CC00754D0E0690026C00044
:102E300008D4E06940F08050E061E069012600F0CC
:102E4000805000902E480168C90512D40168804660
:102E500041F480710160FFF7ABFE074605E000BF5B
:102E6000FFF7A6FEC01B642823D8D8F80000C005D1
:102E7000F6D5206A10F4407021D0A98801F4407181
:102E800081421CD0206A1F49012220F440700A6050
:102E900000220A602062C00711D0FFF789FE0746B2
:102EA00041F2883808E000BFFFF782FEC11B4145B0
:102EB00002D90320BDE8F883206A8007F4D5206A90
:102EC000696820F44070084320621EB1E06920F078
:102ED0008050E0612878800705D56068A96820F4F3
:102EE0004040084360602878C00605D5606869697D
:102EF00020F48000084360600020DBE700100240FF
:102F000000700040400442422DE9F0470F460500A2
:102F100061D0434E306800F00700B84209D23068F3
:102F200020F0070038433060306800F00700B842F6
:102F300051D128683B4C810712D5400703D5606802
:102F400040F4E06060602878000703D5606840F4D2
:102F5000605060606068A96820F0F000084360601D
:102F60002878C00728D06868012810D02168022876
:102F700010D0890700292EDA616821F0030101438E
:102F80006160FFF715FE804641F288390DE0216847
:102F90008903EFE78901EDE7FFF70AFEA0EB0801DF
:102FA000494502D90320BDE8F0876068696800F0F0
:102FB0000C00B0EB810FEFD1306800F00700B84291
:102FC0000BD9306820F0070038433060306800F0DB
:102FD0000700B84201D00120E5E72878400705D571
:102FE0006068E96820F4E0600843606028780007C2
:102FF00006D56068296920F4605040EAC10060602D
:1030000000F038F86168084AC1F30311515CC84008
:103010000649086006480068FFF71EFE0020C2E768
:1030200000200240001002406A5B00082C000020D3
:10303000240000200448054900684968044AC1F397
:103040000221515CC84070472C0000200010024053
:103050007A5B00080448054900684968044AC1F3DE
:10306000C221515CC84070472C0000200010024073
:103070007A5B000813A185B00FC98DE80F0015A079
:10308000154A00680490516801F00C00042804D02F
:10309000082804D0114805B070471148FBE7C1F378
:1030A0008343C9031DF8030009D5516804AAC1F37D
:1030B0004041515C0A4A5043B0FBF1F0EBE709494B
:1030C0004843E8E702030405060708090A0B0C0D4C
:1030D0000E0F1010010200000010024000127A00D2
:1030E0000024F40000093D002DE9F84F040070D0E1
:1030F0002078C04DC00749D06868C0F3810001281E
:1031000007D06868C0F38100022809D16868C0034D
:1031100006D52868800339D560680028E7D035E0F7
:103120006068B0F5803F0BD010B1B0F5A02F11D082
:10313000286820F480302860286820F4802002E08D
:10314000286840F480302860606890B1FFF730FD57
:1031500006460AE0286840F480202860F0E700BFB7
:10316000FFF726FD801B642873D828688003F7D5F5
:103170000CE0FFF71DFD064605E000BFFFF718FD58
:10318000801B6428F0D828688003F7D420789A4EF2
:1031900080074FF001094FF0000839D5686810F03A
:1031A0000C0F07D06868C0F38100022809D1686855
:1031B000C00306D42868800714D52069012808D1E7
:1031C00010E02069B0B1C6F80090FFF7F1FC0746A7
:1031D00005E00AE1FFF7ECFCC01B0228C4D8286810
:1031E0008007F7D52868616920F0F80040EAC1003F
:1031F00028600DE0C6F80080FFF7DAFC074604E01F
:10320000FFF7D6FCC01B022823D828688007F7D414
:10321000207800072CD57948A169D9B1C0F8009071
:10322000FFF7C6FC074604E0FFF7C2FCC01B0228FC
:103230000FD8686A8007F7D571484FF4FA510068D3
:10324000B0FBF1F0009000BF0098411E0091FAD24F
:103250000EE080E0C0F80080FFF7AAFC074604E01B
:10326000FFF7A6FCC01B022875D8686A8007F7D450
:103270002078400760D5E8690027C00008D4E869D5
:1032800040F08050E861E869012700F0805000902C
:103290005C480168C90513D40168834641F4807114
:1032A0000160FFF785FC824606E000BFFFF780FC67
:1032B000A0EB0A0064284ED8DBF80000C005F5D565
:1032C000E06801280AD008B1052813D0286A20F048
:1032D00001002862286A20F0040002E0286A40F019
:1032E00001002862E06841F2883B98B1FFF760FC7A
:1032F00082460BE0286A40F004002862EEE700BF37
:10330000FFF756FCA0EB0A0159455AD8286A8007F6
:10331000F6D50CE0FFF74CFC824605E0FFF748FCD1
:10332000A0EB0A0159454CD8286A8007F6D41FB192
:10333000E86920F08050E861E06988B36968C1F30A
:103340008101022944D00228C6F8608004D0FFF72A
:103350002FFC044638E034E0FFF72AFC074604E07F
:10336000FFF726FCC01B02282BD828688001F7D461
:10337000206AB0F5803F05D16868A16820F400306C
:1033800008436860D4E908010843696821F47411AE
:1033900008436860C6F86090FFF70AFC044606E040
:1033A00025E000BFFFF704FC001B022809D82868AD
:1033B0008001F7D51BE000BFFFF7FAFB001B0228D6
:1033C00002D90320BDE8F88F28688001F4D40EE00C
:1033D0000128F7D06868226A00F48031914204D154
:1033E000616A00F47010884201D00120EAE70020F1
:1033F000E8E7000000100240000042428004424220
:103400002C0000200070004010B5401EB0F1807FFD
:1034100001D3012010BD4FF0E02460610F2160173F
:1034200002F073FB0020A06107202061002010BD86
:103430007047704770B590F83C20012A2CD00124C9
:1034400080F83C40022280F83D2003685A689D685D
:1034500022F070060A6832435A60104B02689A42A2
:103460000ED00F4B9A420BD0B2F1804F08D00D4BCB
:103470009A4205D00C4B9A4202D00C4B9A4204D18E
:10348000496825F080031943916080F83D40002190
:1034900080F83C10084670BD022070BD002C014031
:1034A000003401400004004000080040000C0040CF
:1034B00010B5040003D094F83D0010B107E00120DE
:1034C00010BD002084F83C00204600F01FF80220C8
:1034D00084F83D00211D206802F080F9012084F865
:1034E000460084F83E0084F83F0084F8400084F8E9
:1034F000410084F8420084F8430084F8440084F8D2
:10350000450084F83D00002010BD000008B50168AA
:103510002648B1F1804F11D0254A91421DD1C16991
:1035200041F00201C161C069002200F00200009078
:1035300011461D20FFF7D4FB1D2031E0C16941F089
:103540000101C161C069002200F001000090032167
:103550001C20FFF7C5FB1C2022E0164A91420ED129
:10356000C16941F00401C161C069002200F004009A
:10357000009001211E20FFF7B3FB1E2010E00E4A31
:10358000914211D1C16941F00801C161C0690022B5
:1035900000F00800009002213220FFF7A1FB32204A
:1035A000BDE80840FFF78EBB08BD000000100240D8
:1035B0000004004000080040000C004090F83D105E
:1035C000012901D001207047022180F83D100168D7
:1035D000CA6842F00102CA6000680E4988420ED0F3
:1035E0000D4988420BD0B0F1804F08D00B4988427A
:1035F00005D00B49884202D00A49884204D181682B
:1036000001F00701062903D0016841F001010160C2
:1036100000207047002C01400034014000040040AD
:1036200000080040000C00400168CA6822F0010256
:10363000CA6001680A6A41F211131A4207D10A6A84
:103640009B101A4203D10A6822F001020A6001218C
:1036500080F83D100020704770B5044690F83C009B
:10366000012817D0012584F83C50022084F83D0041
:103670002068826822F0770222F47F428260086824
:10368000502830D00DDC20284DD005DC98B3102810
:103690003BD148E0022070BD302844D0402834D1CE
:1036A00039E0602828D0702806D0B0F5805F2CD093
:1036B000B0F5005F29D10AE0CB68D1E9012120688B
:1036C00002F0D2F82068816841F0770109E0CB6808
:1036D000D1E90121206802F0C7F82068816841F42F
:1036E0008041816011E0CA684968206802F0CEF824
:1036F0005021206807E016E0CA684968206802F097
:10370000D6F86021206802F0B9F884F83D50002016
:1037100084F83C0070BDCA684968206802F0B6F8B9
:1037200040212068EFE7226801461046EBE770472A
:1037300070B50446006801694FF00005C943890768
:1037400015D4C168C943890711D4E91E016101205C
:103750002077206880698007204602D0FFF7E7FFC6
:1037600004E000F098F8204600F096F825772068ED
:103770000169C943490717D4C168C943490713D42C
:103780006FF004010161022020772068806910F445
:10379000407F204602D0FFF7CAFF04E000F07BF82C
:1037A000204600F079F8257720680169C9430907A8
:1037B00016D4C168C943090712D46FF0080101612A
:1037C000042020772068C0698007204602D0FFF7D8
:1037D000AEFF04E000F05FF8204600F05DF82577CA
:1037E00020680169C943C90617D4C168C943C9061D
:1037F00013D46FF010010161082020772068C069A0
:1038000010F4407F204602D0FFF791FF04E000F063
:1038100042F8204600F040F8257720680169C94346
:10382000C90708D1C168C943C90704D1891E01610C
:10383000204600F033F820680169C943090609D41D
:10384000C168C943090605D46FF0800101612046B3
:10385000FFF7EEFD20680169C943490609D4C16834
:10386000C943490605D46FF040010161204600F0CC
:1038700037F820680169C94389060BD4C168C94378
:10388000890607D46FF0200101612046BDE8704031
:10389000FFF7CFBD70BD7047704700000068B0F102
:1038A000804F04D00A49884207D1FDF79FBB0949E0
:1038B0004878401C4870FDF79BBE0749884201D1FB
:1038C000FDF7C2BB0549884201D1FDF733BD704702
:1038D000000400405803002000080040000C004095
:1038E0007047704770470000F8B5026804461068DA
:1038F000D168536910F00F0F4FF0000553D003F05B
:10390000010601F4907737435FD0C20705D0CA059E
:1039100003D5226C42F001022264420705D5DA0782
:1039200003D0226C42F002022264820705D5DA0736
:1039300003D0226C42F004022264020707D501F092
:103940002002324303D0226C42F008022264226C2F
:10395000002A34D0800604D5880602D5204601F01E
:10396000DFFF20684069216CC0F38010090700D494
:1039700030B3204601F0BCFF2068416949061BD5E1
:10398000416921F040014161A06BA8B158494163F0
:10399000A06BFEF7E3FE002811D0A06B416B01B0D5
:1039A000BDE8F040084783060FD58B060DD52046AD
:1039B000BDE8F84001F0B4BF2046FFF793FFF8BD23
:1039C0002046FFF78FFF2564F8BD266B2023012ECC
:1039D00052D1C60650D5CE064ED51068506800901C
:1039E000506940062AD5A16B086840680004000CA5
:1039F000EAD0A68D8642E7D9E0858869202818D0CC
:103A0000D06820F48070D0602068416921F0010105
:103A100041612068416921F04001416184F83E30F4
:103A200025632068C16821F01001C160A06BFEF71A
:103A300071FEA08DE18D401A81B219E0A08DE18D5B
:103A4000401A81B2E08D0028BED00029BCD0D068D9
:103A500020F49070D0602068426922F00102426137
:103A600084F83E3025632068C26822F01002C260EC
:103A70002046FFF736FFF8BD05062BD50D0629D5E4
:103A800094F83D002128F6D1A068B0F5805F01D1FF
:103A90002069B0B1206A411C216221680078486029
:103AA000E08C401E0004000CE084E4D12068C16872
:103AB00021F08001C1602068C16841F04001C1600F
:103AC000F8BD206A0088C0F308005060206A801C9E
:103AD0002062E5E74006F3D54806F1D5D1682046D7
:103AE00021F04001D16084F83D3000F024F9F8BDA8
:103AF000E158000870B5040004D094F83D0000259A
:103B000010B106E0012070BD84F83C50204600F062
:103B100023F8242084F83D002068C16821F4005176
:103B2000C160204601F058FF2068016921F49041EE
:103B300001612068416921F02A0141612068C16862
:103B400041F40051C1602564202084F83D0084F8D0
:103B50003E00002070BD0000F0B585B00024009448
:103B600001940294039403683F483E4F05150221D7
:103B70000322C614BB4225D1C36943F40023C361A9
:103B8000C36903F400230493836943F01003836142
:103B90008069CDE9005100F01000CDE90320334DDC
:103BA00069462846FEF7E2FECDE9006469462846EC
:103BB0000294FEF7DBFE002204213420FFF790F888
:103BC000342028E02A4FBB4229D1836943F4804343
:103BD0008361836903F480430493836943F004039E
:103BE00083618069234E00F0040004907815CDE9CC
:103BF0000001039269463046FEF7B8FECDE9005455
:103C0000694630460294FEF7B1FE002203212520CA
:103C1000FFF766F82520FFF755F805B0F0BD164F01
:103C2000BB42FAD1C36943F48023C361C36903F47F
:103C300080230493836943F0080383618069CDE99D
:103C4000005100F00800CDE903200C4D69462846DC
:103C5000FEF78CFECDE90064694628460294FEF723
:103C600085FEDAE7004C00400010024000100140E1
:103C7000003801400008014000480040000C0140AD
:103C8000704700002DE9F843044690F83D001F46B8
:103C900016460D4620284CD1C5B1BEB194F83C0063
:103CA000012846D0012084F83C004FF00008C4F8F9
:103CB0004080212084F83D00FEF77AFFA6848146EB
:103CC000E684A068B0F5805F03D004E00120BDE881
:103CD000F883206928B12E465FF0000584F83C8007
:103CE0000EE00026FAE78021204601F0D1FEA0B9BF
:103CF000AEB116F8010B21684860E08C401EE084EC
:103D0000E08C4B464FF0000200970028EBD14FF0BB
:103D10004001204601F0BCFE30B10320D7E735F862
:103D2000020BC0F30800E6E7202084F83D000020E5
:103D3000CDE70220CBE7704718B51048006801684E
:103D4000C9438A060E4909D443680E4C4A88A354D5
:103D5000521C4A806FF02001016018BD0268D243F6
:103D6000D3064FF0000206D4426801220A700168AF
:103D70004068009018BD0A704A8018BDD00200202B
:103D80001A000020C4010020FEE700000148FEF7F1
:103D900042BF0000980000202DE9F0411F4C002593
:103DA0008046D4E9002329462846521E5B1E01F0B6
:103DB0004FF81B4E002240213046FEF7F4FE012250
:103DC00020213046FEF7EFFE164F1AE02021304644
:103DD000FEF7E9FE002240213046FEF7E4FEC7F878
:103DE0000080002210213046FEF7DDFE0122102166
:103DF0003046FEF7D8FE012240213046FEF7D3FEC2
:103E00006D1CD4E900014843A8424FF00102DDD8FF
:103E10003046BDE8F0414021FEF7C5BE94030020C6
:103E2000001801400C1401402DE9F05F1C4690463B
:103E30008946DDF828A083460025534622464146A0
:103E4000484601F005F81B4E002240213046FEF79F
:103E5000AAFE012220213046FEF7A5FEA4EB0904AC
:103E6000AAEB0800144F44431AE020213046FEF725
:103E70009AFE002240213046FEF795FEC7F800B0BA
:103E8000002210213046FEF78EFE0122102130461E
:103E9000FEF789FE012240213046FEF784FE6D1CAC
:103EA000AC424FF00102E0D83046BDE8F05F40215F
:103EB000FEF779BE001801400C14014010B500F067
:103EC00031FF2C2001F0FAF90F4C0122202120466D
:103ED000FEF769FE002240212046FEF764FE0B48F3
:103EE0000B4900680860002210212046FEF75BFEA7
:103EF000012210212046FEF756FE20460122BDE891
:103F000010404021FEF74FBE00180140480000203D
:103F10000C14014070B50F4D0446012220212846A3
:103F2000FEF741FE002240212846FEF73CFE0A48EB
:103F30000460002210212846FEF735FE01221021E0
:103F40002846FEF730FE2846BDE870400122402199
:103F5000FEF729BE001801400C1401402DE9F05F66
:103F600000F0C2FE3220FEF791FC3220FEF78EFCFC
:103F7000FF4E012208213046FEF715FECF2001F04A
:103F80009DF9012220213046FEF70DFE002240213E
:103F90003046FEF708FEF74C002525602A46102122
:103FA0003046FEF700FE012210213046FEF7FBFDF1
:103FB000012240213046FEF7F6FD01222021304645
:103FC000FEF7F1FD002240213046FEF7ECFD81278F
:103FD0002760002210213046FEF7E5FD0122102166
:103FE0003046FEF7E0FD012240213046FEF7DBFDC2
:103FF000012220213046FEF7D6FD00224021304626
:10400000FEF7D1FD4FF03009C4F8009000221021D6
:104010003046FEF7C8FD012210213046FEF7C3FDF1
:10402000012240213046FEF7BEFDED2001F046F9A9
:10403000012220213046FEF7B6FD00224021304605
:10404000FEF7B1FD64202060002210213046FEF70B
:10405000AAFD012210213046FEF7A5FD01224021D4
:104060003046FEF7A0FD012220213046FEF79BFDE1
:10407000002240213046FEF796FD4FF0030AC4F8B7
:1040800000A0002210213046FEF78DFD01221021F4
:104090003046FEF788FD012240213046FEF783FDC1
:1040A000012220213046FEF77EFD002240213046CD
:1040B000FEF779FD12202060002210213046FEF725
:1040C00072FD012210213046FEF76DFD01224021D4
:1040D0003046FEF768FD012220213046FEF763FDE1
:1040E000002240213046FEF75EFD276000221021AD
:1040F0003046FEF758FD012210213046FEF753FDF1
:10410000012240213046FEF74EFDE82001F0D6F8AE
:10411000012220213046FEF746FD00224021304694
:10412000FEF741FD85202060002210213046FEF779
:104130003AFD012210213046FEF735FD01224021D3
:104140003046FEF730FD012220213046FEF72BFDE0
:10415000002240213046FEF726FD1127276000226D
:1041600010213046FEF71FFD012210213046FEF7D8
:104170001AFD012240213046FEF715FD01222021C3
:104180003046FEF710FD002240213046FEF70BFDC1
:1041900078202060002210213046FEF704FD012225
:1041A00010213046FEF7FFFC012240213046FEF789
:1041B000FAFCCB2001F082F8012220213046FEF7E4
:1041C000F2FC002240213046FEF7EDFC3920206051
:1041D000002210213046FEF7E6FC01221021304675
:1041E000FEF7E1FC012240213046FEF7DCFC012213
:1041F00020213046FEF7D7FC002240213046FEF752
:10420000D2FC2C202060002210213046FEF7CBFC8F
:10421000012210213046FEF7C6FC01224021304623
:10422000FEF7C1FC012220213046FEF7BCFC002233
:1042300040213046FEF7B7FC2560002210213046B1
:10424000FEF7B1FC012210213046FEF7ACFC012242
:1042500040213046FEF7A7FC012220213046FEF720
:10426000A2FC002240213046FEF79DFC3420206055
:10427000002210213046FEF796FC01221021304624
:10428000FEF791FC012240213046FEF78CFC012212
:1042900020213046FEF787FC002240213046FEF701
:1042A00082FC4FF00208C4F8008000221021304642
:1042B000FEF779FC012210213046FEF774FC012242
:1042C00040213046FEF76FFCF72000F0F7FF012297
:1042D00020213046FEF767FC002240213046FEF7E1
:1042E00062FC20202060002210213046FEF75BFC9B
:1042F000012210213046FEF756FC012240213046B3
:10430000FEF751FCEA2000F0D9FF012220213046BF
:10431000FEF749FC002240213046FEF744FC2560B0
:10432000002210213046FEF73EFC012210213046CB
:10433000FEF739FC012240213046FEF734FC012211
:1043400020213046FEF72FFC002240213046FEF7A8
:104350002AFC2560002210213046FEF724FC0122B1
:1043600010213046FEF71FFC01224021304603E0B9
:10437000001801400C140140FEF715FCB62000F0B7
:104380009DFF012220213046FEF70DFC0022402136
:104390003046FEF708FC0A2020600022102130463B
:1043A000FEF701FC012210213046FEF7FCFB012242
:1043B00040213046FEF7F7FB012220213046FEF770
:1043C000F2FB002240213046FEF7EDFBA2202060E8
:1043D000002210213046FEF7E6FB01221021304674
:1043E000FEF7E1FB012240213046FEF7DCFBC02056
:1043F00000F064FF012220213046FEF7D4FB0022AA
:1044000040213046FEF7CFFB212020600022102102
:104410003046FEF7C8FB012210213046FEF7C3FBF1
:10442000012240213046FEF7BEFBC12000F046FFCE
:10443000012220213046FEF7B6FB00224021B34680
:104440003046FEF7B0FB2760002210215846FEF7E9
:10445000AAFB012210215846FEF7A5FB01224021AC
:104460005846FEF7A0FBC52000F028FF01222021BE
:104470005846FEF798FB002240215846FEF793FB72
:1044800033202060002210215846FEF78CFB0122C9
:1044900010215846FEF787FB012240215846FEF7BF
:1044A00082FB012220215846FEF77DFB002240219D
:1044B0005846FEF778FB3C20206000221021584629
:1044C000FEF771FB012210215846FEF76CFB01221A
:1044D00040215846FEF767FBC72000F0EFFE01229F
:1044E00020215846FEF75FFB002240215846FEF788
:1044F0005AFBA0202060002210215846FEF753FBF3
:10450000012210215846FEF74EFB01224021584659
:10451000FEF749FB362000F0D1FE0122202158464B
:10452000FEF741FB002240215846FEF73CFB60208D
:104530002060002210215846FEF735FB0122102191
:104540005846FEF730FB012240215846FEF72BFB70
:104550003A2000F0B3FE012220215846FEF723FB4B
:10456000002240215846FEF71EFB55202060002205
:1045700010215846FEF717FB012210215846FEF77E
:1045800012FB012240215846FEF70DFBB12000F03E
:1045900095FE012220215846FEF705FB002240210E
:1045A0005846FEF700FB2560002210215846FEF712
:1045B000FAFA012210215846FEF7F5FA01224021AD
:1045C0005846FEF7F0FA012220215846FEF7EBFA92
:1045D000002240215846FEF7E6FA182727600022FD
:1045E00010215846FEF7DFFA012210215846FEF747
:1045F000DAFA012240215846FEF7D5FAF22000F0FF
:104600005DFE012220215846FEF7CDFA002240210E
:104610005846FEF7C8FA2560002210215846FEF7DA
:10462000C2FA012210215846FEF7BDFA01224021AC
:104630005846FEF7B8FA262000F040FE012220215D
:104640005846FEF7B0FA002240215846FEF7ABFA72
:1046500001202060002210215846FEF7A4FA012212
:1046600010215846FEF79FFA012240215846FEF7D6
:104670009AFAE02000F022FE012220215846FEF79F
:1046800092FA002240215846FEF78DFA0F26266046
:10469000002210215846FEF786FA012210215846C2
:1046A000FEF781FA012240215846FEF77CFA0122EA
:1046B00020215846FEF777FA002240215846FEF79F
:1046C00072FA1A202060002210215846FEF76BFA79
:1046D000012210215846FEF766FA01224021584671
:1046E000FEF761FA012220215846FEF75CFA00220B
:1046F00040215846FEF757FA2760002210215846FD
:10470000FEF751FA012210215846FEF74CFA012219
:1047100040215846FEF747FA012220215846FEF76D
:1047200042FA002240215846FEF73DFA0C20206054
:10473000002210215846FEF736FA01221021584671
:10474000FEF731FA012240215846FEF72CFA0122E9
:1047500020215846FEF727FA002240215846FEF74E
:1047600022FA10202060014600225846FEF71BFA6C
:10477000012210215846FEF716FA01224021584620
:10478000FEF711FA012220215846FEF70CFA00220A
:1047900040215846FEF707FA082020600022102129
:1047A0005846FEF700FA012210215846FEF7FBF9A1
:1047B000012240215846FEF7F6F9012220215846F1
:1047C000FEF7F1F9002240215846FEF7ECF94527A3
:1047D0002760002210215846FEF7E5F9012210213A
:1047E0005846FEF7E0F9012240215846FEF7DBF972
:1047F000012220215846FEF7D6F9002240215846D2
:10480000FEF7D1F9BA202060002210215846FEF7A9
:10481000CAF9012210215846FEF7C5F901224021AC
:104820005846FEF7C0F9012220215846FEF7BBF991
:10483000002240215846FEF7B6F9C4F80090002245
:1048400010215846FEF7AFF9012210215846FEF715
:10485000AAF9012240215846FEF7A5F9012220219C
:104860005846FEF7A0F9002240215846FEF79BF972
:10487000C4F80080002210215846FEF794F9012266
:1048800010215846FEF78FF9012240215846FEF7C5
:104890008AF9012220215846FEF785F9002240219D
:1048A0005846FEF780F92560002210215846FEF791
:1048B0007AF9012210215846FEF775F901224021AC
:1048C0005846FEF770F9012220215846FEF76BF991
:1048D000002240215846FEF766F92560002210218B
:1048E0005846FEF760F9012210215846FEF75BF9A1
:1048F000012240215846FEF756F901222021584650
:10490000FEF751F9002240215846FEF74CF9256088
:10491000002210215846FEF746F901221021584680
:10492000FEF741F9012240215846FEF73CF90122E9
:1049300020215846FEF737F9002240215846FEF75D
:1049400032F92560002210215846FEF72CF9012289
:1049500010215846FEF727F9012240215846FEF75C
:1049600022F9012220215846FEF71DF9002240219C
:104970005846FEF718F92560002210215846FEF728
:1049800012F9012210215846FEF70DF901224021AB
:104990005846FEF708F9E12000F090FC01222021A2
:1049A0005846FEF700F9002240215846FEF7FBF872
:1049B0002560002210215846FEF7F5F8012210214B
:1049C0005846FEF7F0F8012240215846FEF7EBF872
:1049D000012220215846FEF7E6F8002240215846E1
:1049E000FEF7E1F824202060002210215846FEF74F
:1049F000DAF8012210215846FEF7D5F801224021AD
:104A00005846FEF7D0F8012220215846FEF7CBF891
:104A1000002240215846FEF7C6F8272020600022D9
:104A200010215846FEF7BFF8012210215846FEF724
:104A3000BAF8012240215846FEF7B5F8012220219C
:104A40005846FEF7B0F8002240215846FEF7ABF872
:104A5000C4F800A0002210215846FEF7A4F8012255
:104A600010215846FEF79FF8012240215846FEF7D4
:104A70009AF8012220215846FEF795F8002240219D
:104A80005846FEF790F80E2020600022102158466C
:104A9000FEF789F8012210215846FEF784F801221A
:104AA00040215846FEF77FF8012220215846FEF7A4
:104AB0007AF8002240215846FEF775F8062020605B
:104AC000002210215846FEF76EF8012210215846A8
:104AD000FEF769F8012240215846FEF764F80122EA
:104AE00020215846FEF75FF8002240215846FEF785
:104AF0005AF83A202060002210215846FEF753F859
:104B0000012210215846FEF74EF801224021584656
:104B1000FEF749F8012220215846FEF744F800220A
:104B200040215846FEF73FF82760002210215846E2
:104B3000FEF739F8012210215846FEF734F8012219
:104B400040215846FEF72FF8012220215846FEF753
:104B50002AF8002240215846FEF725F84F20206011
:104B6000002210215846FEF71EF801221021584657
:104B7000FEF719F8012240215846FEF714F80122E9
:104B800020215846FEF70FF8002240215846FEF734
:104B90000AF80D202060002210215846FEF703F885
:104BA000012210215846FDF7FEFF01224021584600
:104BB000FDF7F9FF012220215846FDF7F4FF0022FE
:104BC00040215846FDF7EFFF1F20206000221021F2
:104BD0005846FDF7E8FF012210215846FDF7E3FF94
:104BE000012240215846FDF7DEFF012220215846D0
:104BF000FDF7D9FF002240215846FDF7D4FF26607B
:104C0000002210215846FDF7CEFF01221021584600
:104C1000FDF7C9FF012240215846FDF7C4FF0122DC
:104C200020215846FDF7BFFF002240215846FDF7DE
:104C3000BAFF3F252560002210215846FDF7B3FF3B
:104C4000012210215846FDF7AEFF012240215846AF
:104C5000FDF7A9FF012220215846FDF7A4FF0022FD
:104C600040215846FDF79FFF25600022102158463D
:104C7000FDF799FF012210215846FDF794FF01220C
:104C800040215846FDF78FFF012220215846FDF7AD
:104C90008AFF002240215846FDF785FF266000224A
:104CA00010215846FDF77FFF012210215846FDF7DD
:104CB0007AFF012240215846FDF775FF112000F0D0
:104CC000FDFA1420FDF7E2FD292000F0F7FA00F0CC
:104CD000ADF8FCF725FD0120FDF7D8FDBDE8F05F3C
:104CE0004FF4FA70FDF7D2BD10B50D4C012204212E
:104CF0002046FDF758FF0120FDF7C8FD00220421E2
:104D00002046FDF750FF1420FDF7C0FD01220421CD
:104D10002046FDF748FFBDE810401420FDF7B6BD62
:104D2000001801402DE9F0413D4F06460D46387D03
:104D300000F0C4FADFF8EC80012220214046FDF7A4
:104D400032FF002240214046FDF72DFF364C300A4D
:104D50002060002210214046FDF725FF012210218E
:104D60004046FDF720FF012240214046FDF71BFF92
:104D7000012220214046FDF716FF00224021404637
:104D8000FDF711FFF0B22060002210214046FDF730
:104D90000AFF012210214046FDF705FF01224021B4
:104DA0004046FDF700FF387E00F088FA01222021FE
:104DB0004046FDF7F8FE002240214046FDF7F3FE95
:104DC000280A2060002210214046FDF7ECFE012257
:104DD00010214046FDF7E7FE012240214046FDF745
:104DE000E2FE012220214046FDF7DDFE00224021A7
:104DF0004046FDF7D8FEE8B2206000221021404670
:104E0000FDF7D1FE012210214046FDF7CCFE012224
:104E100040214046FDF7C7FEBDE8F04100F072BA00
:104E200094030020001801400C14014007482C2175
:104E30000161012101734FF4A0710160F021416013
:104E40002A2141612B2181617047000094030020D9
:104E50002DE9F047DFF8DC9180461D4616460F46E7
:104E600099F8140000F02AFADFF8CCA101222021E1
:104E70005046FDF798FE002240215046FDF793FE74
:104E80006E4C4FEA18202060002210215046FDF79A
:104E90008AFE012210215046FDF785FE01224021A5
:104EA0005046FDF780FE012220215046FDF77BFE93
:104EB000002240215046FDF776FE08F0FF002060FA
:104EC000002210215046FDF76EFE012210215046AF
:104ED000FDF769FE012240215046FDF764FE0122E4
:104EE00020215046FDF75FFE002240215046FDF78D
:104EF0005AFE300A2060002210215046FDF753FE72
:104F0000012210215046FDF74EFE0122402150465D
:104F1000FDF749FE012220215046FDF744FE002204
:104F200040215046FDF73FFEF0B2206000221021E4
:104F30005046FDF738FE012210215046FDF733FEA2
:104F4000012240215046FDF72EFE99F8180000F08E
:104F5000B5F9012220215046FDF725FE002240210F
:104F60005046FDF720FE380A2060002210215046EE
:104F7000FDF719FE012210215046FDF714FE012213
:104F800040215046FDF70FFE012220215046FDF73B
:104F90000AFE002240215046FDF705FEF8B22060CF
:104FA000002210215046FDF7FEFD0122102150463F
:104FB000FDF7F9FD012240215046FDF7F4FD0122E5
:104FC00020215046FDF7EFFD002240215046FDF71D
:104FD000EAFD280A2060002210215046FDF7E3FD7B
:104FE000012210215046FDF7DEFD012240215046EE
:104FF000FDF7D9FD012220215046FDF7D4FD002206
:1050000040215046FDF7CFFDE8B22060002210217C
:105010005046FDF7C8FD012210215046FDF7C3FDA3
:10502000012240215046FDF7BEFDBDE8F04700F0EB
:1050300069B9000094030020001801400C140140DD
:105040002DE9FF4F81B08A460EA9DFF8DC9091E888
:105050003100203800F0FF0801980AEB040300EB50
:105060005402D9F800B05146521E5B1EFFF7F0FE05
:10507000002D4FF0000547D12C4808EB480100EB0C
:10508000810A00F2744000EB081817E00C2C03D0E2
:1050900018F8057000260CE01AF80570FAE7F80712
:1050A00001D0039800E00498FEF734FF7F08761CD7
:1050B000F6B2B6EB540FF2D36D1CEDB2A542E5D3B8
:1050C00024E00C2C08D01A4800EB08100026475D9D
:1050D0000AEB0500009012E0144808EB480100EBD1
:1050E0008100F3E70398C9F80000F80704D0DDE970
:1050F00000103044FEF7E2FE7F08761CF6B2B6EBF5
:10510000540FEFD36D1CEDB2A542DAD30948C9F8AC
:1051100000B000210CC805B0521EBDE8F04F084693
:105120005B1EFFF795BE000048000020CC5B000826
:1051300040600008940300202DE9FF4F83B04FF03A
:105140000008109F1D464446C1467E08DFF874B033
:10515000DFF874A02CE0281B401EC1B20A2000F02A
:10516000FCFC0599B1FBF0F00A21B0FBF1F201FB68
:105170001200B8F1000F05D1691E8C4202DA30B17D
:105180004FF001083030C0B28DE8810204E005988C
:105190000A2812D2302111E00398DBF8003006FB18
:1051A0000400DAF800200499FFF74AFF641CE4B217
:1051B000AC42D0D307B0BDE8F08F20218DE8820249
:1051C000EAE700004C000020480000202DE9FF4FD6
:1051D00083B04FF00008109F1D464446C1467E082C
:1051E000DFF874B0DFF874A02CE0281B401EC1B2B9
:1051F0000A2000F0B2FC0599B1FBF0F00A21B0FBE7
:10520000F1F201FB1200B8F1000F05D1691E8C42CA
:1052100002DA30B14FF001083030C0B28DE88102BF
:1052200004E005980A2812D2302111E00398DBF837
:10523000003006FB0400DAF800200499FFF700FFB5
:10524000641CE4B2AC42D0D307B0BDE8F08F20219B
:105250008DE88202EAE700004C00002050000020A8
:105260002DE9FE4F1C4691468A460546104E114FC9
:10527000DFF84480DDF830B013E03168491EA94200
:1052800014D37168491E514510D38DE8010A3B685B
:1052900051462846D8F80020FFF7D2FE05EB590505
:1052A000641C2078A0F120015E29E6D9BDE8FE8FBC
:1052B000940300204C0000204800002070B50F4DE2
:1052C0000446002220212846FDF76DFC00224021E3
:1052D0002846FDF768FC0A48046000221021284691
:1052E000FDF761FC012210212846FDF75CFC2846F1
:1052F000BDE8704001224021FDF755BC0018014077
:105300000C1401400148007CFFF7D8BF9403002033
:105310003EB5002411480094019402940E49846023
:10532000016004730475012505614FF46021446038
:10533000C161FCF75DFF08B1FCF7A8F907200094F4
:10534000CDE9015069460548FCF7D0FE002801D0A0
:10535000FCF79CF93EBD00000024014054000020F1
:105360001CB50024104900940E48019408600846BA
:10537000FDF747F908B1FCF789F900940022694666
:1053800009480194FDF71AF908B1FCF77FF91022DA
:1053900069460548FDF712F9002801D0FCF776F9B7
:1053A0001CBD000000740040840000202DE9F04F77
:1053B00085B00024584800940194029403948169B4
:1053C00041F040018161816901F0400104918169EE
:1053D00041F004018161816901F004010491816956
:1053E00041F010018161816901F01001049181692E
:1053F00041F008018161816901F00801049181692E
:1054000041F020018161806900F020000490FDF7E7
:10541000A9FBDFF808A100227D215046FDF7C3FB60
:10542000DFF8FCB0002240F20F315846FDF7BBFB1D
:105430004FF6FF78002241463A48FDF7B4FB4FF49F
:105440006079002249463848FDF7ADFB7D200125F3
:105450000226CDE90005CDE9024669465046FDF732
:1054600085FA8027CDE90074694630480294FDF73B
:105470007DFA1020CDE9000469462B480294FDF71F
:1054800075FA40F20330CDE900050320CDE9024072
:1054900069465846FDF76AFA0C20CDE90005CDE9CA
:1054A000024669465846FDF761FA0097204FCDE95C
:1054B000017469465046FDF759FA4FF47040CDE942
:1054C0000007694602945846FDF750FACDF800806F
:1054D0000396CDE9015469461248FDF747FACDF825
:1054E00000900396CDE9015469460F48FDF73EFA56
:1054F000002202211720FDF7F3FB1720FDF7E2FB46
:10550000002202212820FDF7EBFB2820FDF7DAFB23
:1055100005B0BDE8F08F0000001002400018014007
:10552000000C01400014014000100140000801403F
:1055300000002110094810B50749016003214160AE
:1055400040F6FF718160FDF739FB002803D0BDE80C
:105550001040FCF79BB810BD0030004098000020C0
:1055600010B586B000241848009401940294039466
:1055700004944FF080410594016041F61F41C0E959
:10558000011442F20F71C0E903148461FDF790FF2A
:1055900008B1FCF77BF84FF48050009069460A4848
:1055A000FEF75AF808B1FCF771F8049404A906480C
:1055B0000594FDF73FFF08B1FCF768F80248FDF7D6
:1055C000FDFF06B010BD0000A400002010B586B09D
:1055D0000024174900940194029403940494134AFC
:1055E00005940A6047224A6010228A60C1E90304D8
:1055F00008468C61FDF75CFF08B1FCF747F84FF4F3
:105600008050009069460A48FEF726F808B1FCF77A
:105610003DF8049404A906480594FDF70BFF002803
:1056200001D0FCF733F806B010BD000000040040C4
:10563000EC00002010B586B00024174800940194B7
:1056400002940394049413490594016041F61F41A8
:10565000C0E9011442F20F71C0E903148461FDF73F
:1056600027FF08B1FCF712F84FF48050009069460C
:105670000948FDF7F1FF08B1FCF708F8049404A904
:1056800005480594FDF7D6FE002801D0FBF7FEFF84
:1056900006B010BD000C00407C0100200C4810B585
:1056A0000A4901604FF416514160002181600C22CB
:1056B000C160C0E904128161C161FEF71BFA0028D4
:1056C00003D0BDE81040FBF7E1BF10BD004C004027
:1056D0008C02002010B5104C0E480C2120604FF4B5
:1056E000E13060600020A060E060C4E90401A061D6
:1056F000E0612046FEF7FEF908B1FBF7C7FF20681E
:10570000C16841F02001C1602068C16841F010010A
:10571000C16010BD00380140D0020020FEE7FEE766
:1057200070477047FDF77EBA10B596B028216846DD
:10573000FAF731FD14210AA8FAF72DFD18210FA858
:10574000FAF729FD092000904FF480304100CDE99F
:1057500001010121049102240691CDE907404FF493
:10576000E01009906846FDF7BFFC08B172B6FEE78D
:105770000F20CDE90A0400204FF48061CDE90C012F
:105780000E9002210AA8FDF7BFFB08B172B6FEE732
:105790004FF4004011900F940FA8FDF73FFB002835
:1057A00001D072B6FEE716B010BD70470148FDF794
:1057B000BFBF0000A40000200148FDF7B9BF0000F2
:1057C000EC0000200148FDF7B3BF000034010020C9
:1057D0000148FDF7ADBF00007C010020F0B5026874
:1057E0001C4B1D4D1D4E1E4F1E4C4FF0804C9842C1
:1057F00009D0A04207D0604505D0A84203D0B042EE
:1058000001D0B84204D122F0700E4A6842EA0E027A
:10581000984209D0A04207D0604505D0A84203D0E5
:10582000B04201D0B84203D122F44075CA682A437D
:105830004D6922F080022A4302608A68C2620A68C7
:105840008262984201D0A04201D10969016301211D
:105850004161F0BD002C0140000400400008004000
:10586000000C00400034014010B5846842EA032275
:1058700024F47F440A432243826010BD826822F0F0
:1058800070020A4342F007018160704710B5036A55
:10589000046A24F001040462846924F0F00444EAF8
:1058A000021423F00A020A438461026210BD10B59B
:1058B000036A23F0100303628369046A23F47043CC
:1058C00043EA023224F0A00343EA0111826101623B
:1058D00010BD00000148FEF707B800008C02002050
:1058E00010B5406A0021C185C184FDF7FBFF10BDE2
:1058F0000168CA6822F49072CA6001684A6922F09D
:1059000001024A61016B012904D10168CA6822F0D1
:105910001002CA60202180F83E1000210163704708
:1059200008B590F83E10222901D0022008BD8268F7
:105930004FF480539A4201D1016921B1816A9A42A0
:105940001BD04AB10AE00268816A5268C2F30802B9
:105950000A80816A891C08E0026972B10268526893
:1059600002F07F020A70816A491C8162C18D491E62
:105970000904090CC18503D019E002685268F1E7F7
:105980000168CA6822F02002CA600168CA6822F46D
:105990008072CA6001684A6922F001024A612021CE
:1059A00080F83E10016B012903D0FEF769F9002051
:1059B00008BD002101630168CA6822F01002CA60B4
:1059C00001680A68D20602D50A6849680091818D8B
:1059D000FDF787FFEBE7000070B50446006801693A
:1059E000E26821F44051114301612169A068084334
:1059F000616908432168CA6841F20C639A43024313
:105A0000CA6020684169A26921F440711143416173
:105A10001E492068884202D1FDF71CFB01E0FDF71A
:105A200009FB00EBC00101EB0012606864218000FB
:105A3000B2FBF0F3B3FBF1F36FF018067343B2FB64
:105A4000F0F5B2FBF0F605EB8305322303EB051509
:105A5000B5FBF1F5B6FBF1F605F0F00505EB061523
:105A6000B2FBF0F6B2FBF0F0B0FBF1F06FF0180211
:105A7000504306EB800003EB0010B0FBF1F021680F
:105A800000F00F002844886070BD0000003801401D
:105A90002DE9F041984617460E460446069D1DE046
:105AA000681C1BD02DB1FDF783F8A0EB0800A842BD
:105AB00014D92068C16821F4D071C160206841699F
:105AC00021F001014161202084F83D0084F83E006E
:105AD000002084F83C000320BDE8F08120680068C5
